:020000040801F1
:10000000E8070020C90101084B0C0108950B010805
:10001000470C010883020108A71C0108000000002A
:10002000000000000000000000000000AD1001080A
:10003000E5090108000000008D0E0108891901087A
:10004000E3010108E3010108E3010108E3010108FC
:10005000E3010108E3010108E3010108E3010108EC
:10006000E3010108E3010108E3010108E3010108DC
:10007000E3010108E3010108E3010108E3010108CC
:10008000E3010108E3010108E3010108E3010108BC
:100090004D1C0108E3010108E3010108E301010827
:1000A000E3010108E3010108E3010108E30101089C
:1000B000E3010108E3010108E3010108E30101088C
:1000C000E3010108E3010108E3010108E30101087C
:1000D000E3010108E3010108E3010108E30101086C
:1000E000E3010108E3010108E301010800F002F85F
:1000F00000F05AF80AA090E8000C82448344AAF168
:100100000107DA4501D100F04FF8AFF2090EBAE865
:100110000F0013F0010F18BFFB1A43F0010318473B
:10012000A8210000C82100000A444FF0000C10F87C
:10013000013B13F0070408BF10F8014B1D1108BF65
:1001400010F8015B641E05D010F8016B641E01F805
:10015000016BF9D113F0080F1EBF10F8014BAD1C55
:100160000C1B09D16D1E58BF01F801CBFAD505E073
:1001700014F8016B01F8016B6D1EF9D59142D6D3CD
:10018000704700000023002400250026103A28BFF5
:1001900078C1FBD8520728BF30C148BF0B607047F9
:1001A0001FB51FBD10B510BD00F031F81146FFF7A7
:1001B000F7FF01F01FFF00F04FF803B4FFF7F2FF65
:1001C00003BC00F057F80000094880470948004781
:1001D000FEE7FEE7FEE7FEE7FEE7FEE7FEE7FEE7F7
:1001E000FEE7FEE704480549054A064B7047000054
:1001F0008D190108ED000108E8010020E807002042
:10020000E8030020E80300207047704770477546F8
:1002100000F02CF8AE4605006946534620F0070072
:10022000854618B020B5FFF7DDFFBDE820404FF050
:1002300000064FF000074FF000084FF0000B21F0D0
:100240000701AC46ACE8C009ACE8C009ACE8C0099D
:10025000ACE8C0098D46704710B50446AFF3008086
:100260002046BDE81040FFF7A8BF000000487047D7
:100270008801002001491820ABBEFEE726000200DD
:10028000704700BFFEE70146CAB20B1243EA0220E4
:100290007047000008B50020009022E197480088D0
:1002A00000F00F00964908700846007800287CD1BD
:1002B00094480068944908800846008800F030009F
:1002C000924908809048008800F440508E49088088
:1002D0008C4909684BF6BF7201EA020080F40050B5
:1002E00080F0200040F4004141F08001854A116017
:1002F0008248008800F0100090BB1046006848F665
:100300000F7108401146086000F046FC7D490968FD
:100310004BF6BF7201EA02007B49098801F4805163
:1003200009B180F480507849098801F4005109B17D
:1003300080F400507549098801F0100109B180F07E
:1003400010007249098801F0200109B180F02000F5
:1003500081B241F4004141F080016A4A116008BD58
:10036000FFE76848006880B20090BDF8000000F424
:100370000060B0B363480068C0F30E0048F68F71A8
:1003800008406049086000F0FBFF5E4909684BF6D1
:10039000BF7201EA02005C49098801F4805109B189
:1003A00080F480505849098800E056E001F400517B
:1003B00009B180F400505549098801F0100109B1D4
:1003C00080F010005149098801F0200109B180F046
:1003D000200081B241F4004141F08001494A11609E
:1003E000BDE7FFE7BDF8000000F40040002878D02A
:1003F00044480068C0F30E0048F68F710840414938
:10040000086000F007FD3F4909684BF6BF7201EA3A
:1004100002003D49098801F4805109B180F48050FF
:100420003949098801F4005109B180F40050374975
:10043000098801F0100109B180F0100033490988E2
:1004400001F0200109B180F0200081B241F40041A7
:1004500041F080012B4A116081E7294800782C493E
:1004600001EB8000D0F8000C80B20090BDF80000D5
:1004700000F40040C0B12248007801EB8000D0F8C1
:10048000000CC0F30E0048F68F7108401C49097833
:100490001F4A02EB8101C1F8000C19490978491E75
:1004A0001C4A52F821008047BDF8000000F080008F
:1004B000B8B113480078164901EB8000D0F8000C61
:1004C00048F60F7108400E490978114A02EB810184
:1004D000C1F8000C0A490978491E0F4A52F8210058
:1004E000804708484430006880B20449088000F41E
:1004F000004000287FF4D2AE00BF30E75400002057
:100500000C000020005C00402000002022000020A1
:10051000005000407C000020600000200B4A02EBED
:100520008001D1F8001C01F4804171B102EB80011F
:10053000D1F8001C48F68F7211404CF28002114332
:10054000024B03EB8002C2F8001C704700500040D1
:100550000B4A02EB8001D1F8001C01F0400171B19F
:1005600002EB8001D1F8001C48F68F72114048F26E
:10057000C0021143024B03EB8002C2F8001C70471B
:1005800000500040084A02EB8001D1F8001C48F6F8
:100590008F62114048F280021143034B03EB80024B
:1005A000C2F8001C70470000005000402DE9F047E1
:1005B0002848006800F110052E8826480068077A50
:1005C000D6B9042F18D12448007801280FD1002172
:1005D0002248006880B2801C214A42F81010302066
:1005E0002049088000BF00201B49087003E007274E
:1005F00010201C49088027E0AC88A64201D80420BE
:1006000000E002200746B44200D93446A0B2A968EF
:1006100088478046002000F093FA8146A2B24946FE
:10062000404601F043FBA1B2002000F0F3FD288812
:10063000001B288068882044688030200949088091
:1006400000020949088000BF024909680F72BDE82D
:10065000F08700001000002008000020505C0040DF
:100660000060004022000020200000202DE9F04121
:100670003048006800F110042688A068C0B1BEB1FF
:10068000A588B54200D93546A8B2A1688847074673
:100690002088401B2080608828446080002000F073
:1006A0003FFA8046AAB24146384600F0DBFB00BF65
:1006B000208850B14FF440501F490880002108465F
:1006C00000F0A8FD30201D4908802088A1888842BC
:1006D00004DB032017490968087228E020880028F5
:1006E00004DD052013490968087220E02088F0B96C
:1006F000062010490968087211490968886880470E
:100700000C480068007A082806D140020A4908808F
:1007100010200A4908800AE000210A48006880B2D7
:10072000801C094A42F81010302004490880BDE8B6
:10073000F081000010000020200000202200002096
:1007400014000020505C0040006000402DE9F84F8C
:100750009B48006845780027BA46062D1BD198486B
:100760000068007800F07F00002813D194490968E0
:100770008878012803D193490968CF690AE00228E3
:1007800003D1904909680F6A04E0032802D18D491A
:1007900009684F6A94E0002D64D189480068408858
:1007A00000285FD186480068C08802285AD1844852
:1007B00000680079002855D181480068007800F071
:1007C0007F0028B97E480068808808B97E4F77E0AE
:1007D0007B480068007800F07F00012810D178493C
:1007E00009684879774909688A6900219047002893
:1007F00066D173480068807A002861D0724F5FE04C
:100800006F480068007800F07F00022858D16C48DB
:100810000068407900F00F0669480068407900F0F0
:10082000700967480068407900F0800038B1674976
:1008300001EB8600D0F8000C00F0300806E06349B8
:1008400001EB8600D0F8000C00F4405860480078B6
:10085000B04235D9B9F1000F32D1B8F1000F2FD025
:10086000594F2DE0082D07D155480068007800F059
:100870007F0028BB574F23E00A2D21D15048006844
:10088000007800F07F0001281AD14D480068807A76
:10089000B0B14B480068408890B949480068007979
:1008A00070B947480068C088012809D144490968DF
:1008B0004879444909688A690021904700B9464F40
:1008C00057B13F480068A0F812A03D480068876112
:1008D0000020B84700240FE0394A12685078394A9E
:1008E0001268116988470446032C05D10920344950
:1008F00009680872BDE8F88F31480068008A4FF631
:10090000FF71884204D109202D4909680872F1E776
:10091000022C03D02A480068008A20B90820284900
:1009200009680872E6E726480068007800F0800051
:10093000E0B323480068C088009021480068008A1E
:100940000099884204D91E4900980968088223E06A
:100950001B480068008A1A490968C98888421BDA5E
:1009600017480068008A1749096891F82C108842D6
:1009700003DA0020194908700EE011480068008A67
:100980001049096891F82C1090FBF1F201FB12005C
:1009900010B90120114908700A48006890F82C101D
:1009A000074800688182FFF701FE07E0FFE70320A8
:1009B00003490968087200030949088000BF99E7E4
:1009C00010000020140000202116010800500040F3
:1009D0009C000020A5150108F5150108080000205D
:1009E0002000002070470000012001490870704776
:1009F000380000202DE9F0410246002500260020A5
:100A000000230024002791F803C00CF00F0591F893
:100A100003C00CF0100CBCF1000F03D091F802C021
:100A20004CEA050591F800C0BCF1000F31D0146804
:100A300000202BE04FF0010C0CFA00F3B1F800C0DD
:100A40000CEA03069E4220D183004FF00F0C0CFAF3
:100A500003F7BC4305FA03FC4CEA040491F803C015
:100A6000BCF1280F06D14FF0010C0CFA00FCC2F8C3
:100A700014C00AE091F803C0BCF1480F05D14FF053
:100A8000010C0CFA00FCC2F810C0401C0828D1D39D
:100A90001460B1F800C0BCF1FF0F34DD54680020D1
:100AA0002EE000F1080C4FF0010808FA0CF3B1F841
:100AB00000C00CEA03069E4221D183004FF00F0CC8
:100AC0000CFA03F7BC4305FA03FC4CEA040491F862
:100AD00003C0BCF1280F05D100F1080C08FA0CF88E
:100AE000C2F8148091F803C0BCF1480F07D100F19F
:100AF000080C4FF0010808FA0CF8C2F81080401CEE
:100B00000828CED35460BDE8F081024600209368E7
:100B10000B400BB1012000E00020704701617047DD
:100B200001460548006880B200EBC100001D034A81
:100B300032F8100080B27047505C00400060004006
:100B400001460548006880B200EBC100034A32F854
:100B5000100080B270470000505C00400060004010
:100B600070B50A480468001D0568001D0668344415
:100B700054B108220649204600F046F804220449F0
:100B80001031284600F040F870BD0000E8F7FF1F64
:100B90003B00002000BFFEE710B518480068047A4B
:100BA000022C01D0042C05D1FFF700FD134800688A
:100BB000047A1CE0062C19D11048006840780528FA
:100BC0000ED10E480068007800F07F0040B90B4954
:100BD0000968C87800F074FA09490968086A80470A
:100BE0000849096888688047082400E00824034908
:100BF00009680C7200F04CF910BD000010000020D4
:100C00001C0000201400002030B50B46002100BF5E
:100C100016E00A24B4EB107F05D9302404EB1074DD
:100C200003F8114005E0412404EB10740A3C03F87A
:100C30001140000100254C00641C1D554C1CE1B204
:100C40009142E6DB30BD00BFFEE770477047000011
:100C500070B5002100230F22C47804B3154C24681A
:100C600004F4E064C4F5E064210AC1F10403CA405D
:100C7000447804FA03F184781440214309010E4CAE
:100C80000678A155047804F01F050124AC400578CE
:100C90006D11AD0005F1E025C5F8004109E00478CB
:100CA00004F01F050124AC40044D0678761145F888
:100CB000264070BD0CED00E000E400E080E100E0C3
:100CC00002490143024A1160704700000000FA0522
:100CD0000CED00E070B502264848006844784748AB
:100CE0000068007800F07F00002847D1092C03D16C
:100CF00000F016FD064662E0052C14D13F4800685E
:100D0000C0787F280BDC3D480068807838B93B48C4
:100D10000068808818B939480068807A08B10825C9
:100D200068E000264BE0032C0ED134480068C07800
:100D3000012807D131480068808818B900F014FDF7
:100D400006463CE002263AE0012C38D12B480068E8
:100D5000C078012810D129480068808860B92748E8
:100D60000068407A00F0200030B10020244908607B
:100D700000F062FB064622E0022620E01F480068E1
:100D8000007800F07F00012805D10B2C17D100F06E
:100D900067FD064613E019480068007800F07F0000
:100DA00002280BD1012C03D100F046FB064606E0D9
:100DB000032C04D100F0ECFC064600E002264EB104
:100DC000E0B2104A1268516988470646032E01D1E5
:100DD00009250FE00EB108250CE0062500210A4880
:100DE000006880B2801C094A42F81010302008497F
:100DF000088000BF014909680D7270BD1000002015
:100E00000400002014000020505C004000600040FE
:100E10002200002010B511480068047A022C01D08D
:100E2000042C01D1082412E0032C01D0052C05D19B
:100E3000FFF71CFC09480068047A08E0072C05D17C
:100E400007490968C8688047082400E00824034966
:100E500009680C7200F01CF810BD000010000020A2
:100E600014000020F0B5561C7510074E06EB410427
:100E70002B4605E034F8047B20F8017B401C5B1E08
:100E8000002BF7D1F0BD000000600040704700006B
:100E900010B50D4890F82C10002000F04BF90B48CD
:100EA0000068007A082805D140020949088010200E
:100EB0000849088005480068007A092801D1012006
:100EC00010BD0020FCE70000A00000201000002062
:100ED000200000202200002010B5012000F09AFD23
:100EE00001240F48046000200E490880084600884D
:100EF0000B49086000BF0A48001D006800F48060CC
:100F00000128F8D0002000F0DFF94FF4E050054947
:100F100008800846008802490860002010BD0000D3
:100F2000405C00401A00002029B1064AD269024301
:100F3000044BDA6104E0034AD2698243014BDA616F
:100F4000704700000010024029B1064A926902432E
:100F5000044B9A6104E0034A92698243014B9A610F
:100F600070470000001002400F48006840F0010088
:100F70000D490860084640680C4908400A49486025
:100F8000084600680A4908400749086008460068A2
:100F900020F4802008600846406820F4FE00486085
:100FA0004FF41F0088607047001002400000FFF8F7
:100FB000FFFFF6FE0149086070470000D80042427A
:100FC00010B50446072C01D02E4804702D48007837
:100FD00008284ED2DFE800F004111A202B384E4FBB
:100FE0002948006828B900F053F806202549087000
:100FF00002E005202349087041E000F049F8042090
:101000002049087001202049086038E002201D496D
:1010100048700320087032E01A484078401E194991
:1010200048700846407808B90420087027E017483F
:10103000006883B243F0100314480360052011498F
:1010400008700A2048701AE00E484078401E0D498A
:1010500048700846407858B90C48006883B223F0BD
:1010600010030A4803600620087000200649086043
:1010700005E000BF00BF06200249087000BF00BFA6
:1010800010BD0000390100203C010020405C004000
:101090000549096888B220F00400034908604FF44C
:1010A0003F41014A11607047405C004070470000BA
:1010B0004FF6F8710140014A11607047505C0040E2
:1010C00030B501460F4B1A78002014E003060E4C91
:1010D00004EB9353D3F8003C48F68F74234048F256
:1010E00080042343C4B223430406074D05EB945404
:1010F000C4F8003C401C9042E8D341F08003034C0C
:10110000236030BD9C000020005000404C5C00403B
:1011100010B54A105300054A126892B202EBC002A1
:10112000121D034C44F8123010BD0000505C00400A
:101130000060004010B502460F48006880B200EB26
:10114000C200801D0D4C04EB40033E290BDD48110D
:1011500001F01F040CB9441EA0B24FF4004444EA4D
:1011600080241C6007E0481001F001040CB1441C0D
:10117000A0B284021C6010BD505C004000600040C2
:1011800030B50E4C04EB8003D3F8003C4BF68F7463
:1011900003EA040201F480530BB182F4805201F49B
:1011A00000530BB182F4005242F4004343F0800339
:1011B000024D05EB8004C4F8003C30BD00500040F7
:1011C00010B50B4B03EB8002D2F8002C4BF68F735B
:1011D00002EA030181F4805181F4005141F400429C
:1011E00042F08002024C04EB8003C3F8002C10BDD7
:1011F0000050004010B54A105200044B1B689BB2CF
:1012000003EBC003024C44F8132010BD505C0040B7
:1012100000600040044A126892B202EBC002921CC5
:10122000024B43F812107047505C004000600040D1
:1012300030B50E4C04EB8003D3F8003C48F6BF7485
:1012400003EA040201F010030BB182F0100201F076
:1012500020030BB182F0200242F4004343F08003EC
:10126000024D05EB8004C4F8003C30BD0050004046
:1012700010B50B4B03EB8002D2F8002C48F6BF737D
:1012800002EA030181F0100181F0200141F40042E3
:1012900042F08002024C04EB8003C3F8002C10BD26
:1012A0000050004010B5074B03EB8002D2F8002C31
:1012B00048F68F131A400A43024C04EB8003C3F82C
:1012C000002C10BD0050004001490860704700002C
:1012D000445C004008B501210807FFF725FE012105
:1012E0000420FFF731FE01210820FFF72DFE4FF407
:1012F000C050ADF8000003208DF8020018208DF8D2
:10130000030069461748FFF775FB6020ADF8000041
:1013100048208DF8030003208DF80200694611482B
:10132000FFF768FB4FF44040ADF8000048208DF80F
:10133000030003208DF8020069460B48FFF75AFBB3
:101340000420ADF8000010208DF8030003208DF874
:10135000020069460448FFF74DFB04210248FFF7ED
:10136000DDFB08BD00080140000C014010B5012064
:10137000FFF720FE0121C805FFF7D6FD10BD0000D4
:1013800038B501242948006880B2001D284931F889
:10139000100080B201EB4000009026480068007AFF
:1013A000092832D00098007822490968087000980E
:1013B000401C0090009800781E4909684870009809
:1013C000401C0090009800EB44000090009931F818
:1013D000020B0091FEF757FF1649096848800098F4
:1013E00000EB44000090009931F8020B0091FEF7E9
:1013F0004AFF104909688880009800EB440000907B
:10140000009800880B490968C880012009490968CB
:10141000087208480068C08810B9FFF75BFC01E05B
:10142000FFF794F9FFF734FD38BD0000505C004031
:1014300000600040100000202DE9F047544800688B
:10144000007800F07F08B8F1000F0AD1504800681A
:10145000407A00F0DF004E49096848720020BDE87C
:10146000F087B8F1020F7CD149480068408818B96C
:1014700047480068007908B10220F0E7DFF81491CE
:1014800043480068477927F080052C4640480068AB
:10149000407900F0800038B13F4901EB8400D0F87A
:1014A000000C00F0300606E03B4901EB8400D0F868
:1014B000000C00F4405699F80000A84204D91EB16F
:1014C00033480068807A08B90220C8E707F0800036
:1014D00080B1314901EB8400D0F8000C00F03000FD
:1014E00010284BD1E0B2FFF733F8E0B23021FFF71C
:1014F0009FFE43E0284901EB8400D0F8000C00F483
:101500004050B0F5805F39D1E4B9244A92F82C10EC
:10151000E0B2FFF70FFE204A02EB8401D1F8001C75
:101520004BF68F7201EA020080F4805080F4005084
:1015300040F4004141F08001174B03EB8402C2F8F4
:10154000001C1BE0E0B2FEF7E9FF134A02EB840146
:10155000D1F8001C4BF68F7201EA020080F4805033
:1015600000E011E080F4005040F4004141F08001BF
:10157000094B03EB8402C2F8001C00BF084909684C
:101580004869804700206AE700BF022067E7000043
:10159000100000209C00002000500040A00000200F
:1015A0001C00002010B504462CB90120064909682A
:1015B0000882002010BD0549096808688047024874
:1015C00000680A30F6E70000100000201C00002030
:1015D00010B5024606480068438A32B98888C01AA6
:1015E000034C24682082002010BD08681844FBE7E3
:1015F0001000002010B504462CB9012006490968E6
:101600000882002010BD05490968886880470248A3
:1016100000680C30F6E70000100000201C000020DD
:1016200010B504462CB90220394909680882002007
:1016300010BD00203749088035480068007800F068
:101640007F0018BB32490968487A00F0200131B1A7
:101650003049097841F002012E4A117005E02D4908
:10166000097801F0FD012B4A117000F0400131B101
:101670002849097841F00101264A117005E0254901
:10168000097801F0FE01234A11703AE02048006811
:10169000007800F07F00012801D11E48C8E71C48EF
:1016A0000068007800F07F00022828D1184A1268EC
:1016B000517901F00F0001F080027AB1164B03EB73
:1016C0008002D2F8002C02F03002102A16D1114A02
:1016D000127842F001020F4B1A700FE00E4B03EB31
:1016E0008002D2F8002C02F44052B2F5805F05D19E
:1016F000084A127842F00102064B1A7001E00020FD
:1017000096E70649096808698047024890E70000A3
:101710001000002000000020005000401C000020AD
:1017200010B50E480068C0780D494978884213DC2E
:101730000A480068807878B908480068808858B9F5
:1017400006480068C0780549096888720549096833
:1017500048688047002010BD0220FCE710000020F0
:101760009C0000201C00002010B507480068407A4B
:1017700040F0200004490968487204490968C869B2
:101780008047002010BD0000100000201C00002039
:101790002DE9F0412E480068467926F080073C4646
:1017A0002B480068407900F0800038B1294901EBEE
:1017B0008400D0F8000C00F0300506E0254901EB6C
:1017C0008400D0F8000C00F4405523480078A04273
:1017D00008D91F480068408820B91DB11C4800681E
:1017E000807A10B90220BDE8F08106F08000A0B137
:1017F000184A02EB8401D1F8001C48F6BF7201EAD6
:10180000020080F0100040F4004141F08001114BD3
:1018100003EB8402C2F8001C14E00E4A02EB8401C0
:10182000D1F8001C4BF68F7201EA020080F4805060
:1018300040F4004141F08001064B03EB8402C2F802
:10184000001C00BF05490968886980470020CAE775
:1018500010000020005000409C0000201C000020D0
:1018600010B5174B1B68D978154B1B685879154B69
:101870001B689A699047044611480068807AE8B16D
:101880003CB90F480068007918B90D4800688078A5
:1018900008B1022010BD8CB90B490968C86880479F
:1018A00007480068407906490968C872044800681A
:1018B000C0780349096808730020EBE70220E9E7D4
:1018C00010000020140000201C00002010B5002192
:1018D000204A126890B200BF09E01F4B03EB81025F
:1018E000D2F8002C92B21D4B43F82120491C082944
:1018F000F3D340F48060174A106040F0010010609C
:1019000020F00100106000BF124A121D126802F49C
:101910008062002AF8D04FF6FF320E4B1B1D1A6072
:10192000002109E00D4A52F8212092B20A4C04EB42
:101930008103C3F8002C491C0829F3D340F00800A8
:10194000044A1060126890B240F00400014A10602E
:1019500010BD0000405C00400050004068010020C5
:10196000042808D14FF0E021096941F004014FF04B
:10197000E022116107E04FF0E021096921F0040144
:101980004FF0E022116170477047000070B50C25E0
:101990000024FFF7E9FA1D48006840F001001B49E8
:1019A000086000BF1948006840080028FAD04FF4CA
:1019B000806016494860AD1E0846406840EA854090
:1019C00048600846406848601148006840F03200AE
:1019D0000F4908600D48006840F080700B490860AE
:1019E00000BF0A480068400E0028FAD00748406847
:1019F00040F002000549486005E004484068C0F333
:101A0000870404F00304022CF7D170BD00100240DB
:101A1000002002407047000010B5084808490860DF
:101A20000220096808720748074908600748084902
:101A30000860054909680868804710BD4C0100200E
:101A400010000020A000002014000020D000002082
:101A50001C00002008B54FF4A060FFF731F91420F6
:101A60008DF8000005208DF8010000208DF802009F
:101A700001208DF803006846FFF7EAF808BD000072
:101A800010B588B000246848006868490880084696
:101A9000008800F4004066490988084008B1FEF754
:101AA000F9FB6248008800F48060614909880840B9
:101AB00030B14FF6FF305C4908605E4948688047A6
:101AC0005A48008800F4005059490988084018B164
:101AD0004DF6FF70544908605448008800F4805067
:101AE00053490988084030B14EF6FF704E490860EE
:101AF0000020FFF765FA4D48008800F400604C496B
:101B00000988084060B14C48007810B1FFF7DEFE4C
:101B100002E00220FFF754FA4FF2FF7042490860DA
:101B20004248008800F4007041490988084040B1EB
:101B30004FF6FF503C49086040480078401C3F4940
:101B400008703A48008800F48070394909880840D4
:101B5000002866D04FF6FF6033490860081D006812
:101B600000F40040002856D035480068401C344935
:101B7000086008460068032850D92B48001F0068F9
:101B800000F00800002849D12748001F006880B2F3
:101B90002C490860002408E02B4901EB8400D0F8B0
:101BA000000C80B24DF82400641C082CF4D32548A6
:101BB000006840F00100234908600846006880B2D0
:101BC0001949091F08601F48006820F001001D49DD
:101BD00008600846006880B21349091F086000BF0A
:101BE0001148006800F480600028F9D04FF6FF30FB
:101BF0000D490860002408E05DF8240080B2124A14
:101C000002EB8401C1F8000C641C082CF4D3002002
:101C10000B49086002E00020094908600720FFF72F
:101C2000CFF908B010BD0000445C00405400002013
:101C30001A000020A00000203801002056000020DB
:101C4000580000205C0000200050004010B5FFF755
:101C500017FF10BD0020064908604FF43F400549BA
:101C60000880084600880249091F08600020704764
:101C7000445C00401A0000202DE9F04104460E4665
:101C8000154604F07F00FEF75BFF0746AAB239460F
:101C9000304600F00BF8A9B204F07F00FFF7BAFA63
:101CA0000020BDE8F08100BFFEE70000F0B514465B
:101CB00004F1010C4FEA6C07DFF824C00CEB410380
:101CC0003D460AE00678401C90F800C046EA0C2227
:101CD00023F8022B9B1C401C6D1E002DF2D1F0BD81
:101CE0000060004010B56FF00400FFF739FE0A48AD
:101CF00000680A49B0FBF1F009490870084600780D
:101D000000EB4001C1EBC0104FF6FF7101EAC000CB
:101D10000449088010BD00002400002000127A0051
:101D200040010020420100200146114A12884A4326
:101D30004FF0E0235A6100229A611A46126942F07C
:101D400001021A6100BF4FF0E022106900F00102A9
:101D50001AB100F48032002AF5D04FF0E022126967
:101D600022F001024FF0E0231A6100229A617047CD
:101D70004201002070B504460025062C18D11848F1
:101D80000068007800F07F00012811D11448006835
:101D9000407968B9124800688078222801D1114D35
:101DA00010E00F480068807821280BD10E4D09E023
:101DB0000B480068007800F07F00212802D1032C36
:101DC00000D10A4D0DB9022070BD0548006885613B
:101DD00000210348006841820020A8470020F3E763
:101DE00010000020491E0108191E01082D1E0108BF
:101DF00010B5044602492046FFF7EAFB10BD00007B
:101E0000FC00002010B5044602492046FFF7E0FB25
:101E100010BD0000F400002010B504460249204621
:101E2000FFF7D6FB10BD00000C010020014629B9C8
:101E30000120034A12681082002070470148FCE725
:101E4000100000209800002010B5044602492046EA
:101E5000FFF7BEFB10BD00000401002070B5054671
:101E600006480068C478042C01DB002070BD0448DB
:101E700000EBC4012846FFF7ABFBF7E7100000209A
:101E8000140100200246002901DD02207047002ACB
:101E900001DD0220FAE70020F8E7000000B5024665
:101EA00006480068007800F07F00212804D10B2A42
:101EB00002D100F07DF800BD0220FCE710000020F8
:101EC00010B5002023490968887222490968C87240
:101ED0002148C0791F49096848720020FFF7E8F8D7
:101EE0004FF400710020FFF7DDF910210020FFF70B
:101EF0009FF918210020FFF70BF958210020FFF768
:101F000079F90020FEF73EFB144890F82C100020D1
:101F1000FFF710F90020FFF753F94FF4C0610120DB
:101F2000FFF7C0F94FF480710120FFF763F9042136
:101F30000120FFF76FF900210120FFF721F920218F
:101F40000120FFF775F90020FFF7BAF801200449D6
:101F5000086010BD1000002022220108A00000200F
:101F6000340100201CB504460020009001908DF83B
:101F7000024005490870082269468120FFF77CFE6F
:101F80000120FFF775F91CBD380000200348817A55
:101F900011B10521024A1160704700004C01002078
:101FA00034010020042001490860704734010020FA
:101FB00003480068C17803480160002070470000B2
:101FC00010000020980000207047704710B5FEF701
:101FD000C7FD0020054909688872FEF77DFFFFF7FD
:101FE00039FE00200249086010BD000010000020EA
:101FF000340100200A480B490860FFF76BF9FFF72E
:1020000029FDFFF7B3F9FFF707FDFFF76BFE05E0CA
:1020100005480068052801D100F008F8F8E700003D
:102020000000010808ED00E03401002010B5402157
:102030000D48FEF76AFD0D49087020210A48FEF799
:1020400064FD0B4908704FF480410A48FEF75DFDBE
:10205000094908704FF400410648FEF756FD07494C
:10206000087000F00DF810BD000801404501002087
:1020700044010020000C01404601002047010020DF
:102080001CB5002000900190032432480078B0B1C4
:102090003148007898B13148007880B130480078F4
:1020A00068B13048007850B100BF2F480078002850
:1020B000FBD00020FFF756FF00202A490870274870
:1020C000007860B900F054F86420FFF72DFE00BFDF
:1020D0004FF480412548FEF718FD0028F8D020482D
:1020E000007860B900F058F86420FFF71DFE00BFCB
:1020F0004FF400411D48FEF708FD0028F8D01548B0
:10210000007820B91D200DF80400601CC4B21248EC
:10211000007820B91B200DF80400601CC4B20D48E3
:10212000007838B10C48007808B9012000E00020A0
:1021300001280DD101200B49087000200A490870C0
:10214000082269468120FFF797FD0120FFF790F8EC
:102150001CBD000044010020450100204601002074
:10216000470100204801002038000020000C0140F9
:1021700010B500BF074800780028FBD02920FFF7E2
:10218000F1FE00BF034800780028FBD00020FFF7D5
:10219000E9FE10BD3800002010B500BF1B480078D4
:1021A0000028FBD02920FFF7DDFE00BF174800788C
:1021B0000028FBD05120FFF7D5FE00BF1348007860
:1021C0000028FBD00020FFF7CDFE00BF0F480078AD
:1021D0000028FBD05120FFF7C5FE00BF0B48007858
:1021E0000028FBD00020FFF7BDFE00BF07480078A5
:1021F0000028FBD05820FFF7B5FE00BF0348007849
:102200000028FBD00020FFF7ADFE10BD38000020F5
:1022100012010002000000081D090A1A0001010253
:10222000030109022900010100C09609040000020F
:1022300003010100092110012101223D0007058150
:10224000030800200705010301002005010906A17C
:1022500001050719E029E715002501950875018199
:10226000029501750881039506750825FF19002957
:102270006581002501950275010508190129029162
:1022800002950175069103C0040309042203470067
:102290004100520053004F004E00500052004F00CA
:1022A000440055004300540049004F004E001A03FB
:1022B0004F005300550020004B00450059004200DC
:1022C0004F00410052004400E822010800000020B5
:1022D0004C01000028010108702301084C01002076
:1022E0009C06000084010108012593127A100D015B
:1022F00002030406070809011A0332123012311AC8
:102300003904011B0F30E90901084D0C0441230277
:1023100001180ACD1F0108C11E0108C9081ACB0403
:102320001E751D01089D101A85041A05041AF11066
:102330001A5D08412905293C1A8D280916581AA545
:102340001C3610220108121A220832291A4B0832B0
:102350003D1A340832091A880832041A8C083222CD
:102360001AAE08321A22392A200841199BC1390FA6
:04000005080100ED01
:00000001FF
