:020000040800F2
:10000000400D0020E901000831150008A513000883
:100010002D1500089B020008612500080000000063
:10002000000000000000000000000000B9190008F6
:10003000650F00080000000071170008B1210008DA
:10004000FF010008FF010008FF010008FF01000890
:10005000FF010008FF010008FF010008FF01000880
:10006000FF010008FF010008FF010008FF01000870
:10007000FF010008FF010008FF010008FF01000860
:10008000FF010008FF010008FF010008FF01000850
:1000900035250008FF010008FF010008FF010008E6
:1000A000FF010008FF010008FF010008FF01000830
:1000B000FF010008FF010008FF010008FF01000820
:1000C000FF010008FF010008FF010008FF01000810
:1000D000FF010008FF010008FF010008FF01000800
:1000E000FF010008FF010008D922000800F002F813
:1000F00000F05AF80AA090E8000C82448344AAF168
:100100000107DA4501D100F04FF8AFF2090EBAE865
:100110000F0013F0010F18BFFB1A43F0010318473B
:1001200004250000242500000A444FF0000C10F8BC
:10013000013B13F0070408BF10F8014B1D1108BF65
:1001400010F8015B641E05D010F8016B641E01F805
:10015000016BF9D113F0080F1EBF10F8014BAD1C55
:100160000C1B09D16D1E58BF01F801CBFAD505E073
:1001700014F8016B01F8016B6D1EF9D59142D6D3CD
:10018000704700000023002400250026103A28BFF5
:1001900078C1FBD8520728BF30C148BF0B607047F9
:1001A0001FB51FBD10B510BD00F03DF81146FFF79B
:1001B000F7FF02F0F3F900F05BF803B4FFF7F2FF8A
:1001C00003BC00F063F80000EFF30980704780F390
:1001D00009887047EFF30880704780F308887047FC
:1001E00040BA7047C0BA704708480047FEE7FEE7CC
:1001F000FEE7FEE7FEE7FEE7FEE7FEE7FEE7FEE7D7
:1002000003480449044A054B70470000ED0000080C
:1002100040070020400D0020400900204009002038
:10022000704770477047754600F02CF8AE460500E1
:100230006946534620F00700854618B020B5FFF701
:10024000DFFFBDE820404FF000064FF000074FF001
:1002500000084FF0000B21F00701AC46ACE8C009E4
:10026000ACE8C009ACE8C009ACE8C0098D467047ED
:1002700010B50446AFF300802046BDE81040FFF7FC
:100280009CBF000000487047DC0600200149182090
:10029000ABBEFEE726000200704700BFFEE7014646
:1002A000CAB20B1243EA02207047000008B50020D2
:1002B000009022E19748008800F00F0096490870EE
:1002C0000846007800287CD194480068944908804A
:1002D0000846008800F03000924908809048008865
:1002E00000F440508E4908808C4909684BF6BF7273
:1002F00001EA020080F4005080F0200040F4004148
:1003000041F08001854A11608248008800F01000A9
:1003100090BB1046006848F60F710840114608600F
:1003200001F042F87D4909684BF6BF7201EA02000C
:100330007B49098801F4805109B180F480507849E3
:10034000098801F4005109B180F400507549098809
:1003500001F0100109B180F010007249098801F024
:10036000200109B180F0200081B241F4004141F048
:1003700080016A4A116008BDFFE76848006880B2E2
:100380000090BDF8000000F40060B0B3634800685E
:10039000C0F30E0048F68F7108406049086001F014
:1003A000D1FB5E4909684BF6BF7201EA02005C4965
:1003B000098801F4805109B180F4805058490988B6
:1003C00000E056E001F4005109B180F400505549B5
:1003D000098801F0100109B180F010005149098825
:1003E00001F0200109B180F0200081B241F4004108
:1003F00041F08001494A1160BDE7FFE7BDF8000008
:1004000000F40040002878D044480068C0F30E0093
:1004100048F68F7108404149086001F06DF93F4985
:1004200009684BF6BF7201EA02003D49098801F4F0
:10043000805109B180F480503949098801F4005194
:1004400009B180F400503749098801F0100109B161
:1004500080F010003349098801F0200109B180F0D3
:10046000200081B241F4004141F080012B4A11602B
:1004700081E7294800782C4901EB8000D0F8000C76
:1004800080B20090BDF8000000F40040C0B12248E6
:10049000007801EB8000D0F8000CC0F30E0048F6A5
:1004A0008F7108401C4909781F4A02EB8101C1F88D
:1004B000000C19490978491E1C4A52F8210080474E
:1004C000BDF8000000F08000B8B11348007816496C
:1004D00001EB8000D0F8000C48F60F7108400E497F
:1004E0000978114A02EB8101C1F8000C0A49097828
:1004F000491E0F4A52F821008047084844300068DE
:1005000080B20449088000F4004000287FF4D2AE95
:1005100000BF30E7980100200C000020005C004084
:10052000200000202200002000500040C0010020D8
:10053000A40100200B4A02EB8001D1F8001C01F459
:10054000804171B102EB8001D1F8001C48F68F7236
:1005500011404CF280021143024B03EB8002C2F8BF
:10056000001C7047005000400B4A02EB8001D1F89C
:10057000001C01F0400171B102EB8001D1F8001CB8
:1005800048F68F72114048F2C0021143024B03EB50
:100590008002C2F8001C704700500040084A02EB7D
:1005A0008001D1F8001C48F68F62114048F28002A9
:1005B0001143034B03EB8002C2F8001C704700009C
:1005C0000050004008B50121042001F02FF920203F
:1005D000ADF8000048208DF8030003208DF80200DC
:1005E0006946024800F010FE08BD00000008014006
:1005F00010B52021014800F092FE10BD0008014016
:1006000070B5044600251E480068007800F07F00A1
:10061000212824D1022C09D11A480078022803D0BD
:1006200018480078092801D1174D1AE0012C0CD187
:1006300014480078022803D012480078052804D115
:10064000032010490870114D0BE0052C01D1104D0D
:1006500007E0032C01D10F4D03E0022070BD022002
:10066000FCE70DB90220F9E7054800688561002123
:100670000348006841820020A8470020EEE7000000
:100680001000002024000020B5210008B10A000855
:10069000FD1000081911000810B504460249204653
:1006A00001F078FB10BD00004C02002010B504469C
:1006B0000249204601F06EFB10BD000044020020FC
:1006C00070B5054606480068C478082C01DB002098
:1006D00070BD044800EBC401284601F05BFBF7E75E
:1006E00010000020540200200246032901DD0220F0
:1006F0007047022A01DD0220FAE70020F8E7000037
:10070000014641480068007800F07F00212879D137
:10071000012917D13D480078052803D03B480078CF
:1007200002286FD101203A4A10600620374A107023
:100730000020384A50709070D070344800781071A2
:100740000020704702290CD10220304A107000208E
:10075000304A50709070D0702C4800781071002092
:10076000EFE7042923D1294800780A280ED1022076
:10077000264A10700020274A107050709070D07078
:10078000224800781071002050710EE00A201F4AA4
:1007900010700E201F4A1070002050709070D070A2
:1007A0001A4800781071002050710020C9E706290E
:1007B00028D11648007802280FD014480078032862
:1007C0000BD012480078052807D01048007806287A
:1007D00003D00E480078092811D102200B4A10706E
:1007E00000200C4A107050709070D070074800784C
:1007F000107100205071084A1060084A10600020F3
:100800009FE7FFE702209CE7100000202400002063
:10081000E401002025000020DC010020E001002090
:1008200010B50020254988722548C07925490968F6
:10083000487200202449086023485038006848F670
:100840008F11084040F400701F4950390860096852
:1008500048F6BF7201EA020080F0200040F4004137
:1008600041F08001184A503A116010211648006882
:1008700080B2001D154A42F81010154890F82C104F
:10088000002001F0C3F850210F48006800040F4A0F
:1008900002EBD03001600E4890F82C10002001F0DF
:1008A000F5F80020FFF77AFE002001F0D5F80020CF
:1008B00001F084F801200749086010BDA002002063
:1008C0004700002010000020505C00400060004005
:1008D000F0010020840200200348817A11B1052133
:1008E000024A116070470000A0020020840200202C
:1008F000042001490860704784020020704700000E
:1009000070B5434D6878032877D1424800780428B1
:1009100075D14148006800284ED14048007818B988
:100920003F480068012857D03C48007821281DD155
:100930003B480068052819D1384840783949086093
:1009400036488078096801EB002036490860334852
:10095000C078096801EB0040324908602F480079EF
:10096000096801EB00602F49086035E02B480078EA
:10097000412831D12A48006805282DD127484078E0
:100980002849086025488078096801EB002025493E
:1009900008602248C078096801EB004021490860DE
:1009A0001E480079096801EB00601E49086008468E
:1009B000006800F051FD0FE01748006801280BD9CE
:1009C00015480068801E1749096801EB8024144807
:1009D0000168204600F090FD0020114908600E4992
:1009E000086003200B490870084600780E4908711A
:1009F000002048708870C87070BD07E0FFE70548A8
:100A00000078072802D100F025F8F5E700BFF3E7EA
:100A1000A002002024000020DC010020DC020020D5
:100A2000E0010020E80100202500002010B5074C5F
:100A300000F09EFC0020A07200F0C0FE01F07EFDE0
:100A400001F070FC00200249086010BDA0020020E7
:100A50008402002010B50020114908601148006888
:100A6000007D00F0040058B106200F4908700846C8
:100A700000780E490871002048708870C87010BD59
:100A800008200949087008460078084908710020C4
:100A900048708870C87000F005FF00BFEFE70000E5
:100AA000E40100204C02002024000020250000204A
:100AB000F0B502461649CC788B781648036000687A
:100AC0000002144F38603846006820443860CC7902
:100AD0008B7911480460006800020F4F3860384677
:100AE0000068184438604D8A03200C4F387038462F
:100AF00000780B4F387108480088401B86B222B935
:100B00000848006806820020F0BD07482844FBE73B
:100B1000A0020020DC010020E001002024000020D1
:100B20002500002010000020DC0200202DE9F04705
:100B30002848006800F110052E8826480068077ACA
:100B4000D6B9042F18D12448007801280FD10021EC
:100B50002248006880B2801C214A42F810103020E0
:100B60002049088000BF00201B49087003E00727C8
:100B700010201C49088027E0AC88A64201D8042038
:100B800000E002200746B44200D93446A0B2A9686A
:100B900088478046002000F0DBFB8146A2B2494630
:100BA000404601F0DFFCA1B2002000F06FFF288872
:100BB000001B28806888204468803020094908800C
:100BC00000020949088000BF024909680F72BDE8A8
:100BD000F08700001000002008000020505C00405A
:100BE0000060004022000020200000202DE9F0419C
:100BF0003048006800F110042688A068C0B1BEB17A
:100C0000A588B54200D93546A8B2A16888470746ED
:100C10002088401B2080608828446080002000F0ED
:100C200087FB8046AAB24146384600F08DFD00BFE2
:100C3000208850B14FF440501F49088000210846D9
:100C400000F024FF30201D4908802088A1888842B8
:100C500004DB032017490968087228E0208800286F
:100C600004DD052013490968087220E02088F0B9E6
:100C70000620104909680872114909688868804788
:100C80000C480068007A082806D140020A4908800A
:100C900010200A4908800AE000210A48006880B252
:100CA000801C094A42F81010302004490880BDE831
:100CB000F081000010000020200000202200002011
:100CC00014000020505C0040006000402DE9F84F07
:100CD0009B48006845780027BA46062D1BD19848E6
:100CE0000068007800F07F00002813D1944909685B
:100CF0008878012803D193490968CF690AE002285E
:100D000003D1904909680F6A04E0032802D18D4994
:100D100009684F6A94E0002D64D1894800684088D2
:100D200000285FD186480068C08802285AD18448CC
:100D300000680079002855D181480068007800F0EB
:100D40007F0028B97E480068808808B97E4F77E028
:100D50007B480068007800F07F00012810D17849B6
:100D600009684879774909688A690021904700280D
:100D700066D173480068807A002861D0724F5FE0C6
:100D80006F480068007800F07F00022858D16C4856
:100D90000068407900F00F0669480068407900F06B
:100DA000700967480068407900F0800038B16749F1
:100DB00001EB8600D0F8000C00F0300806E0634933
:100DC00001EB8600D0F8000C00F440586048007831
:100DD000B04235D9B9F1000F32D1B8F1000F2FD0A0
:100DE000594F2DE0082D07D155480068007800F0D4
:100DF0007F0028BB574F23E00A2D21D150480068BF
:100E0000007800F07F0001281AD14D480068807AF0
:100E1000B0B14B480068408890B9494800680079F3
:100E200070B947480068C088012809D14449096859
:100E30004879444909688A690021904700B9464FBA
:100E400057B13F480068A0F812A03D48006887618C
:100E50000020B84700240FE0394A12685078394A18
:100E60001268116988470446032C05D109203449CA
:100E700009680872BDE8F88F31480068008A4FF6AB
:100E8000FF71884204D109202D4909680872F1E7F1
:100E9000022C03D02A480068008A20B9082028497B
:100EA00009680872E6E726480068007800F08000CC
:100EB000E0B323480068C088009021480068008A99
:100EC0000099884204D91E4900980968088223E0E5
:100ED0001B480068008A1A490968C98888421BDAD9
:100EE00017480068008A1749096891F82C10884251
:100EF00003DA0020194908700EE011480068008AE2
:100F00001049096891F82C1090FBF1F201FB1200D6
:100F100010B90120114908700A48006890F82C1097
:100F2000074800688182FFF701FE07E0FFE7032022
:100F300003490968087200030949088000BF99E75E
:100F40001000002014000020E51D000800500040A3
:100F5000EC010020691D0008B91D000808000020F0
:100F60002000002070470000014908607047000021
:100F70001404014030B5044604254FF4302000F03D
:100F8000A9F80546042D17D10C48006940F002006D
:100F90000A49086108464461006940F04000086160
:100FA0004FF4302000F096F805460448006941F6F9
:100FB000FD71084001490861284630BD002002400B
:100FC00004200B49C96801F0010109B101200EE0BC
:100FD0000749C96801F0040109B1022007E004498A
:100FE000C96801F0100109B1032000E00420704736
:100FF0000020024010B504462046FFF7BBFF00204A
:1010000010BD00207047704770B506460D4600249D
:1010100005F0030060B12C4603E0FF200B490855A2
:10102000641C4FF6FC7105EA0100001DA042F4D8D3
:10103000002406E005480159304600F009F8361D45
:10104000241DAC42F6D3002070BD0000DC0200205D
:1010500078B506460C46042500200090E80200F012
:1010600039F80546042D24D11348006940F00100E9
:10107000114908613480E80200F02CF80546042D7F
:1010800010D1B01C0090200C00990880E80200F0FC
:1010900021F805460848006941F6FE7108400649F6
:1010A000086106E00448006941F6FE710840024903
:1010B0000861284678BD000000200240024803492C
:1010C000486003484860704723016745002002409C
:1010D000AB89EFCD00B502460423FFF771FF03464D
:1010E00003E0FFF76DFF0346521E012B01D1002ADA
:1010F000F7D102B90523184600BD0000014629B901
:101100000120034A12681082002070470148FCE762
:10111000100000202400002010B50446314800785B
:10112000032802D0062851D12AE02F480068D8B100
:1011300004202C490870084600782C4908712C4876
:10114000006850B92B480078412806D10A46002192
:101150002948006800F098F911E0244A0121264846
:10116000006800F091F90AE005201E490870084661
:1011700000781E490871002048708870C87026E009
:101180001E48006801280CD107201649087008463F
:101190000078164908710120487000208870C870D6
:1011A00013E01648006880B915480068007D00F01B
:1011B000040050B102200B490870084600780B4922
:1011C0000871002048708870C87000E000BF00BF40
:1011D0002CB906200B4909680882002010BD03487D
:1011E000FCE7000024000020E00100202500002092
:1011F000DC010020DC020020E8010020E4010020E6
:101200004C020020100000202DE9F041024600258C
:101210000026002000230024002791F803C00CF0D2
:101220000F0591F803C00CF0100CBCF1000F03D0B7
:1012300091F802C04CEA050591F800C0BCF1000F1E
:1012400031D0146800202BE04FF0010C0CFA00F3B1
:10125000B1F800C00CEA03069E4220D183004FF093
:101260000F0C0CFA03F7BC4305FA03FC4CEA040428
:1012700091F803C0BCF1280F06D14FF0010C0CFA15
:1012800000FCC2F814C00AE091F803C0BCF1480F9A
:1012900005D14FF0010C0CFA00FCC2F810C0401C44
:1012A0000828D1D31460B1F800C0BCF1FF0F34DDC1
:1012B000546800202EE000F1080C4FF0010808FAF5
:1012C0000CF3B1F800C00CEA03069E4221D1830062
:1012D0004FF00F0C0CFA03F7BC4305FA03FC4CEA81
:1012E000040491F803C0BCF1280F05D100F1080CEB
:1012F00008FA0CF8C2F8148091F803C0BCF1480F4A
:1013000007D100F1080C4FF0010808FA0CF8C2F8F8
:101310001080401C0828CED35460BDE8F0810246FE
:10132000002093680B400BB1012000E000207047C3
:1013300001460548006880B200EBC100001D034A69
:1013400032F8100080B27047505C004000600040EE
:1013500001460548006880B200EBC100034A32F83C
:10136000100080B270470000505C004000600040F8
:1013700070B50A480468001D0568001D06683444FD
:1013800054B108220649204600F046F804220449D8
:101390001031284600F040F870BD0000E8F7FF1F4C
:1013A000B900002000BFFEE710B518480068047AB5
:1013B000022C01D0042C05D1FFF7B8FB13480068BC
:1013C000047A1CE0062C19D11048006840780528E2
:1013D0000ED10E480068007800F07F0040B90B493C
:1013E0000968C87800F0EAFA09490968086A80477C
:1013F0000849096888688047082400E008240349F0
:1014000009680C7200F0B6F910BD00001000002051
:101410001C0000201400002030B50B46002100BF46
:1014200016E00A24B4EB107F05D9302404EB1074C5
:1014300003F8114005E0412404EB10740A3C03F862
:101440001140000100254C00641C1D554C1CE1B2EC
:101450009142E6DB30BD000010B5044604F07C404C
:10146000B0F1006F03D106480649086001E0012091
:1014700010BD00BF2046034909688847F8E700000F
:10148000F50F00089402002030B50346C3F38164D1
:1014900001F00105074800EB840010F815005070BA
:1014A000044800EB840030F81500000A907000201A
:1014B000D07030BD1026000810B5FFF7A2FD002047
:1014C00010BD000070B504460D4604F07C40B0F13C
:1014D000006F03D106480749086001E0002070BD95
:1014E00000BF29462046034A12689047F7E70000EC
:1014F000071000089C02002070B504460D4604F059
:101500007C40B0F1006F03D106480749086001E054
:10151000012070BD00BF29462046034A126890474B
:10152000F7E70000091000089802002000BFFEE75E
:101530007047704770B5002100230F22C47804B3B0
:10154000154C246804F4E064C4F5E064210AC1F198
:101550000403CA40447804FA03F184781440214318
:1015600009010E4C0678A155047804F01F050124EA
:10157000AC4005786D11AD0005F1E025C5F80041DE
:1015800009E0047804F01F050124AC40044D0678FE
:10159000761145F8264070BD0CED00E000E400E057
:1015A00080E100E002490143024A116070470000F7
:1015B0000000FA050CED00E070B50226484800680E
:1015C000447847480068007800F07F00002847D141
:1015D000092C03D100F086FC064662E0052C14D1EC
:1015E0003F480068C0787F280BDC3D480068807861
:1015F00038B93B480068808818B939480068807A53
:1016000008B1082568E000264BE0032C0ED13448D1
:101610000068C078012807D131480068808818B96F
:1016200000F084FC06463CE002263AE0012C38D16A
:101630002B480068C078012810D1294800688088AC
:1016400060B927480068407A00F0200030B10020DF
:101650002449086000F0D2FA064622E0022620E083
:101660001F480068007800F07F00012805D10B2C8E
:1016700017D100F0D7FC064613E01948006800783F
:1016800000F07F0002280BD1012C03D100F0B6FA44
:10169000064606E0032C04D100F05CFC064600E0A0
:1016A00002264EB1E0B2104A1268516988470646D8
:1016B000032E01D109250FE00EB108250CE0062507
:1016C00000210A48006880B2801C094A42F81010C4
:1016D00030200849088000BF014909680D7270BDBB
:1016E000100000200400002014000020505C004086
:1016F000006000402200002010B511480068047A04
:10170000022C01D0042C01D1082412E0032C01D0BA
:10171000052C05D1FFF76AFA09480068047A08E049
:10172000072C05D107490968C8688047082400E0EC
:101730000824034909680C7200F01CF810BD000071
:101740001000002014000020F0B5561C7510074E44
:1017500006EB41042B4605E034F8047B20F8017BBE
:10176000401C5B1E002BF7D1F0BD00000060004064
:101770007047000010B50D4890F82C10002000F0C4
:1017800045F90B480068007A082805D1400209494C
:10179000088010200849088005480068007A092858
:1017A00001D1012010BD0020FCE70000F001002065
:1017B00010000020200000202200002010B5012091
:1017C00000F090FD01240F48046000200E490880BD
:1017D000084600880B49086000BF0A48001D0068E1
:1017E00000F480600128F8D0002000F07DF94FF46B
:1017F000E05005490880084600880249086000203A
:1018000010BD0000405C00401A00002029B1064ACB
:10181000D2690243044BDA6104E0034AD26982438D
:10182000014BDA61704700000010024029B1064AFE
:1018300092690243044B9A6104E0034A926982432D
:10184000014B9A6170470000001002400F48006889
:1018500040F001000D490860084640680C49084006
:101860000A494860084600680A4908400749086074
:101870000846006820F4802008600846406820F48C
:10188000FE0048604FF41F0088607047001002405F
:101890000000FFF8FFFFF6FE0149086070470000F6
:1018A000D800424200BF0748006800F4E0600649E3
:1018B0000843001D03490860BFF34F8F00BF00BFFE
:1018C000FEE700000CED00E00000FA0510B504464C
:1018D000072C01D02E4804702D48007808284ED2DD
:1018E000DFE800F004111A202B384E4F2948006819
:1018F00028B900F053F806202549087002E00520B9
:101900002349087041E000F049F80420204908709C
:1019100001202049086038E002201D49487003205A
:10192000087032E01A484078401E1949487008464D
:10193000407808B90420087027E01748006883B28F
:1019400043F01003144803600520114908700A2071
:1019500048701AE00E484078401E0D49487008460D
:10196000407858B90C48006883B223F010030A4845
:1019700003600620087000200649086005E000BFEB
:1019800000BF06200249087000BF00BF10BD000064
:10199000890200208C020020405C00400549096853
:1019A00088B220F00400034908604FF43F41014A27
:1019B00011607047405C00407047000030B5014640
:1019C0000F4B1A78002014E003060E4C04EB9353DF
:1019D000D3F8003C48F68F74234048F28004234338
:1019E000C4B223430406074D05EB9454C4F8003CED
:1019F000401C9042E8D341F08003034C236030BD8B
:101A0000EC010020005000404C5C004010B5024644
:101A10000F48006880B200EBC200801D0D4C04EB43
:101A200040033E290BDD481101F01F040CB9441E90
:101A3000A0B24FF4004444EA80241C6007E0481040
:101A400001F001040CB1441CA0B284021C6010BD62
:101A5000505C00400060004010B50B4B03EB80026F
:101A6000D2F8002C4BF68F7302EA030181F4805107
:101A700081F4005141F4004242F08002024C04EB38
:101A80008003C3F8002C10BD00500040044A1268C7
:101A900092B202EBC002921C024B43F81210704744
:101AA000505C00400060004030B50E4C04EB8003F9
:101AB000D3F8003C48F6BF7403EA040201F01003B7
:101AC0000BB182F0100201F020030BB182F0200272
:101AD00042F4004343F08003024D05EB8004C4F858
:101AE000003C30BD005000400149086070470000D4
:101AF000445C004008B501210420FFF797FE4FF435
:101B0000C050ADF8000003208DF8020018208DF8B9
:101B1000030069460548FFF777FB01211C20FFF70A
:101B200085FEFFF7CBFAFFF7C7FC08BD00080140B0
:101B300010B50120FFF7B0FE0121C805FFF766FED2
:101B400010BD000038B501242948006880B2001D8E
:101B5000284931F8100080B201EB4000009026487F
:101B60000068007A092832D0009800782249096874
:101B700008700098401C0090009800781E49096881
:101B800048700098401C0090009800EB44000090C2
:101B9000009931F8020B0091FEF781FB16490968A4
:101BA0004880009800EB44000090009931F8020B47
:101BB0000091FEF774FB104909688880009800EBDB
:101BC00044000090009800880B490968C8800120F3
:101BD00009490968087208480068C08810B9FFF709
:101BE000EBFC01E0FFF772F8FFF7C4FD38BD000021
:101BF000505C004000600040100000202DE9F047DC
:101C000054480068007800F07F08B8F1000F0AD14E
:101C100050480068407A00F0DF004E490968487279
:101C20000020BDE8F087B8F1020F7CD14948006878
:101C3000408818B947480068007908B10220F0E7E9
:101C4000DFF8149143480068477927F080052C4657
:101C500040480068407900F0800038B13F4901EB0E
:101C60008400D0F8000C00F0300606E03B4901EBA0
:101C70008400D0F8000C00F4405699F80000A84207
:101C800004D91EB133480068807A08B90220C8E739
:101C900007F0800080B1314901EB8400D0F8000CDE
:101CA00000F0300010284BD1E0B2FEF75DFCE0B24E
:101CB0003021FFF7F9FE43E0284901EB8400D0F81A
:101CC000000C00F44050B0F5805F39D1E4B9244AEB
:101CD00092F82C10E0B2FFF799FE204A02EB840143
:101CE000D1F8001C4BF68F7201EA020080F480509C
:101CF00080F4005040F4004141F08001174B03EBA9
:101D00008402C2F8001C1BE0E0B2FEF713FC134A89
:101D100002EB8401D1F8001C4BF68F7201EA02003D
:101D200080F4805000E011E080F4005040F4004165
:101D300041F08001094B03EB8402C2F8001C00BF94
:101D4000084909684869804700206AE700BF022007
:101D500067E7000010000020EC0100200050004068
:101D6000F00100201C00002010B504462CB9012011
:101D7000064909680882002010BD054909680868FD
:101D80008047024800680A30F6E700001000002093
:101D90001C00002010B5024606480068438A32B98C
:101DA0008888C01A034C24682082002010BD08686F
:101DB0001844FBE71000002010B504462CB90120A0
:101DC000064909680882002010BD0549096888682D
:101DD0008047024800680C30F6E700001000002041
:101DE0001C00002010B504462CB9022039490968AE
:101DF0000882002010BD002037490880354800685F
:101E0000007800F07F0018BB32490968487A00F07A
:101E1000200131B13049097841F002012E4A117098
:101E200005E02D49097801F0FD012B4A117000F001
:101E3000400131B12849097841F00101264A117069
:101E400005E02549097801F0FE01234A11703AE0C6
:101E500020480068007800F07F00012801D11E486A
:101E6000C8E71C480068007800F07F00022828D1ED
:101E7000184A1268517901F00F0001F080027AB11E
:101E8000164B03EB8002D2F8002C02F03002102A2D
:101E900016D1114A127842F001020F4B1A700FE06E
:101EA0000E4B03EB8002D2F8002C02F44052B2F544
:101EB000805F05D1084A127842F00102064B1A7081
:101EC00001E0002096E70649096808698047024852
:101ED00090E70000100000200000002000500040AB
:101EE0001C00002010B50E480068C0780D494978E4
:101EF000884213DC0A480068807878B9084800688E
:101F0000808858B906480068C07805490968887211
:101F10000549096848688047002010BD0220FCE799
:101F200010000020EC0100201C00002010B5074824
:101F30000068407A40F0200004490968487204496A
:101F40000968C8698047002010BD0000100000200B
:101F50001C0000202DE9F0412E480068467926F04B
:101F600080073C462B480068407900F0800038B17B
:101F7000294901EB8400D0F8000C00F0300506E0A0
:101F8000254901EB8400D0F8000C00F440552348AB
:101F90000078A04208D91F480068408820B91DB1C8
:101FA0001C480068807A10B90220BDE8F08106F074
:101FB0008000A0B1184A02EB8401D1F8001C48F659
:101FC000BF7201EA020080F0100040F4004141F0CD
:101FD0008001114B03EB8402C2F8001C14E00E4A8E
:101FE00002EB8401D1F8001C4BF68F7201EA02006B
:101FF00080F4805040F4004141F08001064B03EB37
:102000008402C2F8001C00BF05490968886980473E
:102010000020CAE71000002000500040EC01002022
:102020001C00002010B5174B1B68D978154B1B6896
:102030005879154B1B689A69904704461148006807
:10204000807AE8B13CB90F480068007918B90D48AA
:102050000068807808B1022010BD8CB90B4909686E
:10206000C868804707480068407906490968C8720F
:1020700004480068C0780349096808730020EBE74A
:102080000220E9E710000020140000201C000020BE
:1020900070B504460025FFF7D9FB1E48006840F0E4
:1020A00001001C49086000BF1A4800684008002869
:1020B000FAD04FF4806017494860A01EC4B20846A9
:1020C000406840EA844048600846406848601248DA
:1020D000006840F03200104908600E48006840F087
:1020E00080700C49086000BF0A480068400E002854
:1020F000FAD00848406840F002000649486005E010
:1021000004484068C0F3870505F00305022DF7D1A8
:1021100070BD0000001002400020024010B50021F8
:10212000204A126890B200BF09E01F4B03EB810206
:10213000D2F8002C92B21D4B43F82120491C0829EB
:10214000F3D340F48060174A106040F00100106043
:1021500020F00100106000BF124A121D126802F444
:102160008062002AF8D04FF6FF320E4B1B1D1A601A
:10217000002109E00D4A52F8212092B20A4C04EBEA
:102180008103C3F8002C491C0829F3D340F0080050
:10219000044A1060126890B240F00400014A1060D6
:1021A00010BD0000405C004000500040BC02002018
:1021B000704700002DE9F05F05463F4C4FF0000AE4
:1021C000D346E778A6783D480660006800023B49A0
:1021D00008600846006838440860E779A6793848FE
:1021E000076000680002364908600846006830440D
:1021F000086034480068B0F812803048006810BBAE
:1022000008460068032803D902202F49087002E01D
:1022100009202D4908702C4800782C4908710020AD
:1022200048708870C8702A49087021204870412081
:10223000887035B903202349096808820020BDE869
:10224000F09F2348FBE71D480068012827D9092093
:102250001D490870084600781C4908710020487024
:102260008870C87015480068801E1A49096801EB1B
:10227000802B134801685846FFF724F9824610481E
:102280000088A0EB08001FFA80F92DB90D480068FE
:10229000A0F810900020D2E70AEB0800CFE70F204B
:1022A00009490870084600780849087100204870FC
:1022B0008870C87000BFC2E7A0020020DC010020C7
:1022C000E001002010000020240000202500002054
:1022D000DC020020E801002010B54FF48020FEF75A
:1022E00043FE10BD7047000010B50848084908605B
:1022F000022009680872074807490860074808492A
:102300000860054909680868804710BDA0020020E0
:1023100010000020F0010020140000202002002006
:102320001C00002008B54FF4A060FFF73BF9142013
:102330008DF8000002208DF8010000208DF80200C9
:1023400001208DF803006846FFF7F4F82A208DF885
:10235000000000208DF8010001208DF80300684680
:10236000FFF7E8F808BD000010B588B00024684801
:102370000068684908800846008800F40040664903
:102380000988084008B1FDF791FF6248008800F411
:10239000806061490988084030B14FF6FF305C49E0
:1023A00008605E49486880475A48008800F4005039
:1023B00059490988084018B14DF6FF705449086022
:1023C0005448008800F4805053490988084030B1CF
:1023D0004EF6FF704E4908600020FFF777FA4D482F
:1023E000008800F400604C490988084060B14C48FE
:1023F000007810B1FFF792FE02E00220FFF766FAC4
:102400004FF2FF70424908604248008800F40070B3
:1024100041490988084040B14FF6FF503C490860E7
:1024200040480078401C3F4908703A48008800F452
:102430008070394909880840002866D04FF6FF604F
:1024400033490860081D006800F40040002856D099
:1024500035480068401C3449086008460068032875
:1024600050D92B48001F006800F00800002849D10F
:102470002748001F006880B22C490860002408E04B
:102480002B4901EB8400D0F8000C80B24DF82400F9
:10249000641C082CF4D32548006840F0010023494F
:1024A00008600846006880B21949091F08601F4883
:1024B000006820F001001D4908600846006880B2ED
:1024C0001349091F086000BF1148006800F48060CC
:1024D0000028F9D04FF6FF300D490860002408E0CD
:1024E0005DF8240080B2124A02EB8401C1F8000CAE
:1024F000641C082CF4D300200B49086002E0002083
:10250000094908600720FFF7E1F908B010BD000095
:10251000445C0040980100201A000020F0010020D7
:10252000880200209A0100209C010020A0010020C8
:102530000050004010B5FFF717FF10BD00200649FE
:1025400008604FF43F40054908800846008802496A
:10255000091F086000207047445C00401A000020FA
:1025600000BFFEE7F0B5144604F1010C4FEA6C071A
:10257000DFF824C00CEB41033D460AE00678401C1E
:1025800090F800C046EA0C2223F8022B9B1C401C4A
:102590006D1E002DF2D1F0BD006000400C20FFF751
:1025A00077FDFEF70FF8FEF723F8A8B11248006890
:1025B00012490840B0F1005F0ED10F484068104941
:1025C0000860084600680F4908600B490868FDF775
:1025D00004FE0C48006880470A200B4908700B492C
:1025E0000870094800780871FFF784FAFFF7A0FA2D
:1025F000FFF77AFE00BFFEE7000001080000FE2F93
:10260000300000202C0000202400002025000020A5
:10261000B80B1400E803190032003200E803190077
:10262000E8032D004426000800000020A00200005E
:102630002801000890270008A0020020A00A00003E
:102640008401000801341401120132011640830490
:1026500011DF1009020102030109022413010135EF
:10266000C03209041DFE010204092A0109260509D8
:10267000210BFF100B041A0104030904260347125F
:102680006112721273126F126E1A500A126F126474
:102690001275126312743A69141A631C1422034FE0
:1026A000125312551220124B124512591242124F58
:1026B000124112521A441212441A461A141A03539F
:1026C0001254124D1233F232146203401A49481266
:1026D000741A655E1A6E6E1A6C361A46061A615ABC
:1026E0001A680C1220122F12301A78041A38048932
:1026F00002122F1A314E3A2A0C1A317A12611A2C10
:102700000812319A36145A67621A53BCDA49581AB9
:102710003A041A4D421A351C12367A3466C90249F7
:10272000661A385429244952011F1333150A3208F6
:1027300004E12501080101132D0A140821081B08D2
:10274000FD041B0109041A060412071B08E9081AF4
:10275000AD041A99041AC104415A407C1AD92C09B3
:1027600016641AF11C22353320121A470832241A33
:102770006B0832041A6F0832261A950832221AB7EB
:1027800008321A1AD1082A625C4A0108399E0117D8
:04000005080000ED02
:00000001FF
